:100000000C942C020C9473020C9473020C947302E3
:100010000C9473020C9473020C9473020C9473028C
:100020000C9473020C9473020C94A0200C94722113
:100030000C94C11B0C9473020C9473020C94730205
:100040000C9473020C9473020C9473020C9473025C
:100050000C9473020C941A1C0C9473020C9473028B
:100060000C9473020C9473020C9473020C9473023C
:100070000C9473020C9473020C9473020C9473022C
:100080000C9473020C9473020C9473020C9473021C
:100090000C9473020C9473020C9473020C9473020C
:1000A0000C9473020C9473020C94730224052405BF
:1000B00050055005B805D605FB06FB06E10576069A
:1000C00087068706EB06FB06FB06F4069F079F07DD
:1000D000B107B107A807B107B107B1079F079F078D
:1000E000AD07B107B107AD07DF210622FE220622C8
:1000F000FE2252227522FE22CC22DB2214001A009C
:100100000800150017001C0018000C001200130056
:1001100004001600070009000A000B000D000E0085
:100120000F0029001D401B41064219432A442C455B
:1001300005461178107128721E001F002000210052
:100140002200230024002500260027003A003B005F
:100150003C003D003E003F004000410042004300A3
:1001600001000100010001004C000100010001003C
:10017000010001001E021F022002210222022302AE
:100180002402250226022702440045000100010046
:100190000100010001000100010035000100010023
:1001A0000100010001000100010001000100010047
:1001B0002B0052000100010001002D002E002F0035
:1001C00030003100500051004F00010001003600A6
:1001D0003700380033003400010001000100010045
:1001E000010001005000510052004F0001000100C9
:1001F0000100010001002D022E022F023002310207
:100200002B00010001000100010036023702380214
:10021000330234020100010001000100010001006D
:100220004A004E004B004D00B200B500B100B300D3
:1002300001000100BF5CBE5CCA5CCB5C0100010038
:100240000100010001000100C05CC25CC35CC45C31
:100250000100010001000100005C0100010001003B
:10026000C35CC55C005C00000000000000000000F2
:10027000000000000000000000000000000000007E
:10028000000000000000000000000000000000006E
:10029000000000000000000000000000000000005E
:1002A000005C0000000000000000000000000000F2
:1002B000000000000000000000000000000000003E
:1002C000000000000000000000000000000000002E
:1002D00000000000000000000000000010034700C4
:1002E0006800650072006B0069006E00000020036A
:1002F000340030002000500065007200630065008B
:100300006E007400200043006C0075006200000065
:100310000403090409023B00020100A0FA090400D9
:100320000001030101000921110100012240000721
:1003300005810308000A0904010001030000000907
:10034000211101000122B6000705820320000A12D4
:100350000100020000000825406060010001020069
:100360000105010902A10185020901A10005091980
:10037000012908150025019508750181020501096B
:100380003009311581257F950275088106093815D8
:1003900081257F950175088106050C0A38021581B3
:1003A000257F950175088106C0C005010980A1015E
:1003B000850319012AB700150126B70095017510AC
:1003C0008100C0050C0901A101850419012AA002C0
:1003D000150126A002950175108100C005010906CE
:1003E000A1018506050719E029E7150025019508F3
:1003F000750181020507190029EF1500250195F007
:1004000075018102050819012905950575019102FB
:10041000950175039101C005010906A101050719A0
:10042000E029E71500250195087501810295017500
:100430000881010507190029FF150026FF00950610
:1004400075088100050819012905950575019102B6
:10045000950175039101C00011241FBECFEFDAE0B2
:10046000DEBFCDBF04B603FE27C08091700290911D
:100470007102A0917202B09173028730904BA74035
:10048000B04BD1F41092700210927102109272026D
:100490001092730214BE84B7877F84BF0FB6F8949E
:1004A000A895809160008861809360001092600040
:1004B0000FBEE0E0F8E3099511E0A0E0B1E0EAEF5B
:1004C000F7E402C005900D92A638B107D9F722E0F3
:1004D000A6E8B1E001C01D92A037B207E1F70E9483
:1004E00088130C94FB230C94000081E0089581E0B4
:1004F00008950C94770208950C947B021F93CF9378
:10050000DF9300D000D01F92CDB7DEB749835A8366
:100510006B833091880189819A81311114C06623DF
:1005200059F0222349F00E944509182F682F89812C
:100530009A810E94EC0803C00E941809182F698153
:100540007A81812F04C00E94450969817A810F90C8
:100550000F900F900F900F90DF91CF911F910C94FF
:10056000E50FFC01262F40815181628173818481D6
:100570000C947E0281E00895CF93DF93EC0160E05C
:100580000E94B102BE01DF91CF910C947C020E94C7
:1005900012120E9453030E9400180C944C120C94E7
:1005A000481280E00E944A1780E00C94540308959A
:1005B0000C94D7020E948D070E94D8022FEF84E38B
:1005C0009CE0215080409040E1F700C000000C9476
:1005D000401C0F931F93CF93DF938C0161E00E9427
:1005E000B102EC01B8010E947902882309F444C0E9
:1005F000B801CE010E9415178823F1F1B801CE0190
:100600000E94E6198823C1F1B801CE010E9410189A
:10061000882391F1B801CE010E944219882361F12B
:10062000F8018281882309F1CB358DE5D807C1F027
:1006300050F4C115FCE5DF0781F0CF3DDC45A9F49E
:100640000E94F90E19C0CC35EDE5DE0761F0CD351D
:10065000DD4559F40E943C0E08C00E94DA020CC02D
:100660000E94450E02C00E94480EC801DF91CF9142
:100670001F910F910C94750280E0DF91CF911F9133
:100680000F9108950C94D7020E9439160E94421AC5
:100690000E9454030C94420308950C944C0381E08F
:1006A00008950C944F030895CF93C82F0E944D03D3
:1006B0008C2F0E945103CF910895CF93DF93CDB734
:1006C000DEB72B970FB6F894DEBF0FBECDBF4F83BA
:1006D000588769877A878B8761110E94880D9E01F0
:1006E0002F5F3F4F86E0F90111928A95E9F785E087
:1006F000FE013796D90101900D928A95E1F7898123
:100700009A814C815D81452B31F09F3F31F491E01E
:100710008F3F19F403C091E001C090E090FF09C041
:1007200049815A816B817C818D819E810E94A90CB7
:1007300005C0C9010E94BA028111F2CF2B960FB6F3
:10074000F894DEBF0FBECDBFDF91CF910895FC01BD
:10075000808191810E9487090895CF93882309F4AD
:10076000A4C0C82F8238C1F40E94421A81FD9DC0E6
:1007700069E380910201909103010E94381B0E945D
:10078000BA0D2FEF81EE94E0215080409040E1F7C8
:1007900000C0000069E319C0833801F50E94421AC5
:1007A00080FD83C063E580910201909103010E9466
:1007B000381B0E94BA0D2FEF81EE94E0215080404B
:1007C0009040E1F700C0000063E580910201909144
:1007D00003010E94431BCF910C94BA0D8438C1F4DD
:1007E0000E94421A82FD61C067E4809102019091EB
:1007F00003010E94381B0E94BA0D2FEF81EE94E096
:10080000215080409040E1F700C0000067E4DDCF58
:100810008CEF8C0F813AD0F46C2F80910201909173
:1008200003010E94B81A882349F06C2F80910201BD
:10083000909103010E94431B0E94BA0D6C2F80917E
:100840000201909103010E94381BC5CF80E28C0FFA
:10085000883048F4C77081E001C0880FCA95EAF774
:100860000E946B0DB8CFEBE5EC0FE33040F4F0E005
:10087000E95BFE4F808190E0CF910C94761AE8E519
:10088000EC0FE73150F4F0E0EE0FFF1FE75EFE4F94
:1008900080819181CF910C948C1ACD3E30F08C2FB9
:1008A0000E941714CF910C94E914CF9108958823D6
:1008B00009F464C0823879F40E94421A81FF5EC054
:1008C00069E380910201909103010E94381B0E940C
:1008D000BA0D69E310C08338B1F40E94421A80FF58
:1008E0004DC063E580910201909103010E94381B85
:1008F0000E94BA0D63E580910201909103010E946C
:10090000431B0C94BA0D843879F40E94421A82FF7A
:1009100035C067E480910201909103010E94381B69
:100920000E94BA0D67E4E7CF9CEF980F913A10F45C
:10093000682FE1CF90E2980F983050F4877091E0E3
:1009400001C0990F8A95EAF7892F0E94710DD9CFBE
:100950009BE5980F933020F480E090E00C94761A99
:1009600098E5980F973120F480E090E00C948C1A71
:100970008D3E20F00E9472140C94E91408951F9388
:10098000CF93DF93182FEB010E94AD03209741F026
:100990008FE99FE00197F1F700C000002197F6CFA3
:1009A000812FDF91CF911F910C945704893319F057
:1009B00060E070E002C060E570E00C94BF04882342
:1009C00021F00E946B0D0C94BA0D0895882321F03C
:1009D0000E94710D0C94BA0D0895CF92DF92EF92A0
:1009E000FF920F931F93CF93DF937C01162FC72F96
:1009F000FC01D281058102950F700E94610D882350
:100A0000B9F0DD23A9F08C2F807F803421F080E2C3
:100A1000810F883068F08091530282FD09C082E026
:100A20000E940A0E0E94610D91E0D82ED92601C0C5
:100A3000D12CCC2EC2948FE0C8228C2D90E0FC01EA
:100A4000EA5AFF4F0C948C238C2F807FCF70882321
:100A500011F0C295C07FDD2399F0CC2309F4A6C123
:100A600080E2810F883010F0111104C08C2F0E9499
:100A70006B0D03C08C2F0E947B0D0E94BA0D96C196
:100A8000812F0E945704CC2309F4B5C180E2810F65
:100A9000883038F1112329F18C2F0E94810D24C058
:100AA0008C2F807FCF70803211F0C295C07F1123D0
:100AB00019F01130A1F13DC08091530282FF17C09F
:100AC000DD2349F0CC2329F08C2F0E946B0D0E946E
:100AD000BA0D80E06CC180E00E945704CC2309F479
:100AE0008AC18C2F0E94710D0E94BA0D84C1DD2332
:100AF00071F0002341F0013031F40E949B0D8C2BEA
:100B00000E94A30D78C10E949B0D8C2B1DC0002359
:100B100019F0013009F46FC10E94B00D25C0DD232A
:100B200021F0063008F067C10EC0053008F063C13F
:100B30001BC0DD2361F0002331F0F701858180FFC8
:100B400035C18F7085838C2F0E94DF0454C1002330
:100B500059F0193309F03BC1FFEF27EE83E0F15064
:100B600020408040E1F731C18C2F0E94E60443C150
:100B70008C2F86958695837019F0813061F03BC18A
:100B8000DD2321F0812F9C2F937002C080E090E044
:100B90000E94761A38C1DD2321F0812F9C2F93709B
:100BA00002C080E090E00E948C1A2DC1812FDD23CD
:100BB00019F00E94171402C00E9472140E94E914D6
:100BC00022C18C2F837009F045C0D11118C1412F6B
:100BD000429546954770440F440F612F6F70862FE2
:100BE00090E0A0E0B0E0042E04C0880F991FAA1F77
:100BF000BB1F0A94D2F714FF10C00FE010E020E0F2
:100C000030E004C0000F111F221F331F4A95D2F796
:100C1000009510952095309503C000E010E09801F4
:100C2000C695C695C370BC01CD01602B712B822B7C
:100C3000932BC23049F058F4C13019F00E940208D9
:100C4000DEC00E94F007DBC00E941408D8C00E94DA
:100C5000EE07D5C0DD2319F08C2F817001C0869579
:100C6000882309F4CCC0412F429546954770440F24
:100C7000440F612F6F70862F90E0A0E0B0E0042E4B
:100C800004C0880F991FAA1FBB1F0A94D2F714FF34
:100C900010C00FE010E020E030E004C0000F111F92
:100CA000221F331F4A95D2F7009510952095309555
:100CB00003C000E010E09801C695C695C370BC0162
:100CC000CD01602B712B822B932BC23049F058F44D
:100CD000C13019F00E94C70892C00E94B5088FC0A9
:100CE0000E94D9088CC00E94280889C0CF70DD23DB
:100CF00039F08C2F0E944E08812F0E94DF047FC0A4
:100D0000812F0E94E6048C2F0E946F0878C0123F4A
:100D100021F128F4103F41F0113FC1F043C0133FCF
:100D200019F1143F79F03EC0DD2341F0053008F0A1
:100D300062C08C2F8F710E9494085DC0063008F04D
:100D40005AC0F7CF8091530282FF18C0DD2339F0DB
:100D50008C2F8F710E944E084EC0DD23C9F38C2F5B
:100D60008F710E946F0847C0DD2329F08C2F8F718F
:100D70000E94390840C00E9434083DC0DD2349F07C
:100D8000CF718C2F0E944E0863E08C2F0E94EF0DD4
:100D900032C081E00E940A0E023068F182E00E94B7
:100DA0000A0E29C0DD2331F0002391F2812F0E9429
:100DB000AD0321C0002399F2193349F49FEFE7EE08
:100DC000F3E09150E040F040E1F700C00000812FD7
:100DD0000E94570410C04C2F4F70612FC7010E9412
:100DE000E10F0E94B5090FC04C2F4F70612FC70152
:100DF0000E94E40F08C088EF8C0D843020F40E941C
:100E0000421A0E945403DD20C9F00E945D0D80FD4E
:100E100015C0F70112820E94570D0E944E08C701AB
:100E20000E943F070E94570DDF91CF911F910F91B4
:100E3000FF90EF90DF90CF900C946F08DF91CF91EF
:100E40001F910F91FF90EF90DF90CF9008950F9337
:100E50001F93CF93DF93EC01688179818A810E948F
:100E600092098C010E94EB080E94DC07B801CE01B8
:100E70000E94ED04DF91CF911F910F910895CF93C0
:100E8000DF93EC01988189812B813C81232B31F008
:100E90008F3F31F481E09F3F19F403C081E001C02E
:100EA00080E080FD1DC0CE010E94E902811110C0CA
:100EB0000E94610D8823A1F08A81882389F08091A6
:100EC000530282FD0DC082E0DF91CF910C940A0E97
:100ED000CE010E942707CE01DF91CF910C94BC0276
:100EE000DF91CF91089580E090E00E94761A80E033
:100EF00090E00E948C1A0E94880D0E94980D0E941A
:100F0000BA0D0E941A160C94E91480910201909176
:100F100003010E944E1B0C9473070E94780D0C94E1
:100F20008507E92FE295EF704E2F50E0FA013297D6
:100F3000EE30F105B0F4EA59FF4F0C948C23803F5A
:100F400091F018F4883E68F40EC0843F51F40BC051
:100F5000883E48F0813F29F406C093FB882780F93A
:100F6000089580E0089581E00895FC0180819181D9
:100F70000E9487090E9491070895CF93DF9300D0C4
:100F800000D01F92CDB7DEB70F900F900F900F904B
:100F90000F90DF91CF910895CF93DF9300D000D0D1
:100FA00000D0CDB7DEB726960FB6F894DEBF0FBEE1
:100FB000CDBFDF91CF910895089508950C94DD077A
:100FC0000C94DE070E94E0076093A1017093A201D8
:100FD0008093A3019093A4010C9473070C94E207EF
:100FE0000F931F930091A1011091A2012091A301E1
:100FF0003091A401602B712B822B932B1F910F91A9
:101000000C94E2070F931F930091A1011091A2018C
:101010002091A3013091A4016023712382239323A3
:101020001F910F910C94E2070F931F930091A10160
:101030001091A2012091A3013091A4016027712792
:10104000822793271F910F910C94E2070C94DD07E0
:101050000E94260860939D0170939E0180939F01DA
:101060009093A0010C94730760E070E0CB010C94A6
:1010700028080F931F9341E050E060E070E08A0180
:101080009B0104C0000F111F221F331F8A95D2F746
:10109000C901B8011F910F910C9428080F931F9359
:1010A00041E050E060E070E004C0440F551F661F4F
:1010B000771F8A95D2F780919D0190919E01A09112
:1010C0009F01B091A0018A019B01082B192B2A2BAB
:1010D0003B2BC901B8011F910F910C9428080F9365
:1010E0001F9341E050E060E070E004C0440F551FE2
:1010F000661F771F8A95D2F7409550956095709539
:1011000080919D0190919E01A0919F01B091A001BD
:101110008A019B01082319232A233B23C901B80113
:101120001F910F910C9428080F931F9341E050E0FA
:1011300060E070E004C0440F551F661F771F8A955A
:10114000D2F780919D0190919E01A0919F01B09155
:10115000A0018A019B01082719272A273B27C901DB
:10116000B8011F910F910C9428080F931F930091C1
:101170009D0110919E0120919F013091A001602B53
:10118000712B822B932B1F910F910C9428080F9396
:101190001F9300919D0110919E0120919F0130911C
:1011A000A00160237123822393231F910F910C943C
:1011B00028080F931F9300919D0110919E0120918B
:1011C0009F013091A00160277127822793271F91EB
:1011D0000F910C9428080895292F220F920F990F30
:1011E000890FE82FE695E695E695877051E001C0F6
:1011F000550F8A95EAF785E0E89FF0011124E7573B
:10120000FE4F20E030E070E04081CB01022E02C0B2
:10121000969587950A94E2F78170819584278523B6
:10122000842781932F5F3F4F2530310569F708955B
:10123000292F220F920F990F890F682F66956695B7
:101240006695982F977085E0689FB001112440E063
:1012500050E080E0FB01E40FF51FE757FE4F2081CF
:1012600030E0092E02C0369527950A94E2F72170E6
:101270003327042E01C0220F0A94EAF7822B4F5F16
:101280005F4F4530510531F70895BF92CF92DF92FD
:10129000EF92FF920F931F93CF93DF938C01C09037
:1012A0009D01D0909E01E0909F01F090A00180915F
:1012B000A1019091A201A091A301B091A401C82A1B
:1012C000D92AEA2AFB2ACFE1D0E0D701C6010C2EA9
:1012D00004C0B695A795979587950A94D2F780FD97
:1012E00004C0219790F7B12C07C0BC2EB8018C2FF9
:1012F0000E941C110197A9F38B2DDF91CF911F91B3
:101300000F91FF90EF90DF90CF90BF900895CF9313
:10131000DF93EC010E944509BE010E941C11DF9180
:10132000CF9108951F93CF93DF93EB0190918801A4
:10133000992321F0CB010E94870913C0882349F02B
:10134000CB010E944509182F682FCE010E94EC089E
:1013500004C0CB010E941809182FBE01812F0E94E2
:101360001C11DF91CF911F910895EF92FF920F937F
:101370001F93CF93DF938C01892B09F46CC0F12C60
:10138000EE24E394E8012196F8018491843740F437
:10139000843008F051C0813081F0823019F15BC097
:1013A000853709F444C0A8F19CE7980F903708F0FE
:1013B00052C08F770E94570441C00E5F1F4FFE013D
:1013C000849190E2980F983050F48770FE2D01C000
:1013D000FF0F8A95EAF78F2F0E948B0D14C00E9491
:1013E000AD032DC00E5F1F4FFE01849190E2980F58
:1013F000983060F48770FE2D01C0FF0F8A95EAF7E0
:101400008F2F0E94910D0E94BA0D19C00E9457049F
:1014100016C00E5F1F4FFE01C491CC2381F08FE9EF
:101420009FE00197F1F700C00000C150F6CF0E5FBA
:101430001F4FFE01F49003C00E94AD038E018F2D5B
:10144000882309F49FCFEFE9FFE03197F1F700C05F
:1014500000008150F5CFDF91CF911F910F91FF9048
:10146000EF9008951F93CF93DF93C091A50116E0ED
:101470008091A601C81799F0D0E01C9FF0011D9F34
:10148000F00D1124E955FE4F408151816281738135
:10149000848195810E94CC072196C770E9CFDF91A6
:1014A000CF911F9108954091D7015091D80160913B
:1014B000D9017091DA018091DB019091DC010C94EB
:1014C000CC07EF92FF920F931F93CF93DF938091FE
:1014D000DC0182958F7009F065C08091D901882365
:1014E00009F460C08091A501F090A6011091D70188
:1014F0000091D8016091DA017091DB0191E01F3F0A
:1015000009F090E0C0910001D0910101292F96E0EF
:10151000E92E8F1509F446C06115710521F00F3FC2
:1015200021F030E003C031E001C0322F90E030FD07
:1015300036C0E89EF001E99EF00D1124DF01A955A7
:10154000BE4F11963C911197301329C03C91311335
:1015500026C012963C911297311121C013964D91DD
:101560005C911497461B570B4C175D07C0F4809194
:10157000DC018F7080618093DC01E455FE4F808137
:101580008F708061808387ED91E00E943F07DF913B
:10159000CF911F910F91FF90EF900C94320A01961A
:1015A0008770B7CFDF91CF911F910F91FF90EF9090
:1015B00008959F92AF92BF92CF92DF92EF92FF92E7
:1015C0000F931F93CF93DF93CDB7DEB761970FB61D
:1015D000F894DEBF0FBECDBF8C0185E0F801DE01BF
:1015E0001D9601900D928A95E1F7D8011296EC9024
:1015F0009091D701E091D8012091DA013091DB017F
:101600002115310531F0EF3F31F481E09F3F19F4AE
:1016100003C081E001C080E0B82FB1709B2E80FD37
:1016200047C1D8014C9111965C9111971396AD90DA
:10163000BC90149787EDC82E81E0D82EF090D90188
:10164000B501621B730B2091000130910101FF2055
:1016500009F4D9C08091DC016217730708F095C0C6
:10166000282F207F09F052C05E1313C0491311C008
:10167000FE2CE1100EC08F7080618093DC010E940F
:10168000530AC6010E943F078091DC01F80185835F
:101690004DC1AB2831F05F3F31F481E04F3F19F489
:1016A00003C081E001C080E080FD03C081E08E25A1
:1016B00002C080E090E0F82FF170FF2E80FF1CC088
:1016C0008091A5012091A60136E0821709F40BC193
:1016D00090E0389FF001399FF00D1124E955FE4F3D
:1016E0006181561306C06081461303C06281E61211
:1016F00003C001968770E9CFFE2CEE2009F416C1D5
:101700008091DC0181608093DC0154C05E1306C0CF
:10171000491304C0E11002C0F80199C0C8010E9439
:10172000B507882361F1EE2051F12091DC01822F71
:1017300082958F7090E0029774F08091D70190911C
:10174000D80198878F831986BB86AA862C87CE01FD
:1017500007960E943F0786E0F801A7EDB1E00190EF
:101760000D928A95E1F70E94610A0E94530A0AC00D
:101770005E1711F1C8010E94B50781112CC0C80184
:101780000E943F07FF24F394D1C0282F207F81F7C8
:101790007A2DB98AA88A6E2D89890E94BD0787EDA6
:1017A00091E00E943F0786E0D6011D928A95E9F7F5
:1017B0000E94530AF12CBAC04913DCCFE110DACFF2
:1017C000F8018583C8010E943F0786E0D6011D927B
:1017D0008A95E9F7ABC0EE2091F22091DC01822FCF
:1017E00082958F7090E002970CF4B5CF8091D7016D
:1017F0009091D8019A8389831B82BD82AC822E830B
:10180000CE010196A6CF6217730708F044C0FE2CE4
:10181000EE2009F4B4CF5E1330C049132EC02091DE
:10182000DC0120FD21C0822F82958F70482F50E06F
:1018300041155105C9F0F80125834F30510541F09C
:101840008F5F982F9295907F822F8F70892B858341
:10185000C8010E943F0786E0F801A7EDB1E00190C2
:101860000D928A95E1F73CC086E0F801A7EDB1E062
:1018700001900D928A95E1F759C0C8010E94B50701
:10188000811169CF8091DC0181608093DC01C80106
:101890000E943F074BC07A2DB98AA88A6E2D89898C
:1018A0000E94BD0786E0D6011D928A95E9F718C00F
:1018B000EE2009F464CFC8010E94B507F82E8823F2
:1018C00009F45DCF86E0F801A7EDB1E001900D923B
:1018D0008A95E1F787ED91E00E94A7030E94610AD3
:1018E0000E94530A23C04D875E878D859E850E9486
:1018F0008709292F22952F70223028F49F7039F004
:10190000811105C00BC0243028F49F7049F4805E1B
:10191000883020F0C8010E943F079F2CF92C06C098
:10192000D80115969C91907F91F7F8CF8F2D6196F5
:101930000FB6F894DEBF0FBECDBFDF91CF911F91E0
:101940000F91FF90EF90DF90CF90BF90AF909F905E
:1019500008951F93CF93DF93CDB7DEB72C970FB6C3
:10196000F894DEBF0FBECDBF4F83588769877A8753
:101970008B879C87CE0107960E94D90A8823D1F0D5
:101980009F8188852A853B85232B31F08F3F31F459
:1019900081E09F3F19F403C081E001C080E080FD39
:1019A00047C04F81588569857A858B859C850E94C3
:1019B000CC073EC086E0FE013796DE01119601900D
:1019C0000D928A95E1F7FF81E8856A857B8561152F
:1019D000710531F0EF3F31F481E0FF3F19F403C0AE
:1019E00081E001C080E080FD23C02091A60130E0AD
:1019F000C9010196877099274091A50150E084178D
:101A00009507F1F1F983EA837D836C8396E0929FD9
:101A1000D001939FB00D1124A955BE4FFE01319600
:101A200001900D929A95E1F78093A6010E94320AE7
:101A300016E08091A5019091A601891771F1189F78
:101A4000C001112489559E4F0E94D90A882329F18B
:101A5000E091A5011E9FF0011124E955FE4F408140
:101A6000518162817381848195810E94CC0780912C
:101A7000A50190E00196877099278093A501D9CFA1
:101A80000E948D071092A6011092A501E7EDF1E0EA
:101A900086E0DF011D928A95E9F72C960FB6F8943F
:101AA000DEBF0FBECDBFDF91CF911F910895809112
:101AB000DD0185958595859508958091DD01877077
:101AC00008959091DD01977081E009F480E0089518
:101AD00080910102089590910102892B8093010267
:101AE00008958095909101028923809301020895C1
:101AF00010920102089590910002892B80930002B8
:101B000008958095909100028923809300020895A2
:101B10001092000208959091FF01892B8093FF019C
:101B2000089580959091FF0189238093FF01089586
:101B30001092FF0108958091DE01089508950C949C
:101B40009E0D0C949F0D9091530292FD08C09091B0
:101B5000DE01981721F08093DE010C94A10D089509
:101B60008091DE01882329F01092DE0180E00C9440
:101B7000A10D0895E0910201F0910301809101020D
:101B80008083E0910201F091030190818091000235
:101B9000892B8083E0910201F09103019081809173
:101BA000FF01892B80838091DE01882381F0E09101
:101BB0000201F09103019081892B808380910201C1
:101BC000909103010E94A21A81110E94B00D809190
:101BD0000201909103010C944E1A0C949E0D909169
:101BE000530292FD10C098E0899F90011124262B8A
:101BF0002093DD010E944E088091DD018595859539
:101C000085950C94ED0D0C944E081092DD0180E04A
:101C10000C94ED0D2091DD01809582238093DD01F0
:101C2000982F977099F430E0482F082E000C550B30
:101C30002417350759F09091530292FD07C08595FE
:101C4000859585950E946F080C94050E08959091D6
:101C5000530292FB222720F9281769F080FB92F9A2
:101C60009093530280915202909153020E94750EFC
:101C700082E00C940A0E08958091530282FB88271B
:101C800080F991E089270C94270E81E00C94270EAF
:101C900080E00C94270E6FEF7FEF80E090E00C94D3
:101CA000E52380E090E00E94C12321E0893E9E4F21
:101CB00009F020E0822F089582E090E00C94B9238F
:101CC00083E090E00C94B923CF9384E090E00E94ED
:101CD000B923C82F82E290E00E94B9232C2F30E074
:101CE000A901582BCA01CF910895CF93C92F682F0E
:101CF00084E090E00E94C7236C2F82E290E0CF91B5
:101D00000C94C723AB01BC018FE090E00C94D92365
:101D1000AB01BC0183E190E00C94D92360E070E05A
:101D2000CB010C94880E60E070E0CB010E94820E23
:101D30000C948E0E69EE7EEF80E090E00E94E52329
:101D400060E082E090E00E94C72360E083E090E0E2
:101D50000E94C7231092A1011092A2011092A30128
:101D60001092A40160E084E090E00E94C72360E04C
:101D700082E290E00E94C72360E085E090E00E944C
:101D8000C72360E086E090E00E94C7236FEF87E002
:101D900090E00E94C72340E050E0BA0188E090E064
:101DA0000E94D92360E08DE090E00E94C72340E0CC
:101DB00050E0BA0188E190E00E94D92360E087E119
:101DC00090E00E94C72340E050E0BA018CE190E02F
:101DD0000E94D92360E070E080E290E00E94E52359
:101DE00040E050E0BA0188E190E00E94D9230C94D1
:101DF000930E0C949A0E682F8EE090E00C94C723FB
:101E00000E94FF1B60930C0270930D0280930E02E0
:101E100090930F02609308027093090280930A0264
:101E200090930B02089585B7806885BF85B7806859
:101E300085BF089581E008950C941A0F08950C94BD
:101E40001E0F0C941E0F0C94210F0C941E0F0C945B
:101E5000250F0C941E0F0E94130F88EF91E10E9432
:101E6000381A0E94290F0C94270F0E941F0F0C9400
:101E70001E0F0E94EA1B0E94E9120E9439160C9460
:101E8000230F9F92AF92BF92CF92DF92EF92FF9279
:101E90000F931F93CF93DF93CDB7DEB72A970FB67B
:101EA000F894DEBF0FBECDBF0E94FE1281110E94CA
:101EB000000F83E0A82E82E0B82E00E010E0902E04
:101EC000802F0E943612D82EF501C1905F01C826DE
:101ED000B1F40F5F1F4F0530110589F78FEF89832C
:101EE0008A831B820E94F31B8160782F9D838C83E1
:101EF00049815A816B818D810E945D032FC0809141
:101F0000100281FD0E943C12E12CFF24F3948C2DE1
:101F10008F21F1F00E941C0F882399F0EE829F829E
:101F2000DF2081E009F480E088870E94F31B816054
:101F3000782F9A8789874E815F8168858A850E947C
:101F40005D03F801ED5FFD4F8081F826F08206C049
:101F5000E394FF0CF6E0EF12DACFBBCF0E94FF173D
:101F60000E9407150E94421A909102028917B9F047
:101F70000E94421A809302022A960FB6F894DEBF9E
:101F80000FBECDBFDF91CF911F910F91FF90EF90CA
:101F9000DF90CF90BF90AF909F900C9454032A96FF
:101FA0000FB6F894DEBF0FBECDBFDF91CF911F916A
:101FB0000F91FF90EF90DF90CF90BF90AF909F90E8
:101FC000089580E090E0089508952EE1829FC00179
:101FD0001124FC0126E0729FE00DF11D1124E60F93
:101FE000F11DEE0FFF1FE450FF4F8591949108956E
:101FF000880F991FFC01E452FD4F8591949108953B
:10200000CF93DF930E942111EC01811520E5920707
:1020100008F03FC0811540E4940708F0D2C0883E24
:10202000910500F5803E910508F002C1883A9105BE
:1020300070F4853A910508F0A6C08130910509F445
:102040009FC008F4F2C0049708F0F2C0EEC08F3BC6
:10205000910508F4A1C0803C910508F4E6C0805CBD
:102060009109A5C0811550E2950760F4C11581E082
:10207000D80708F0DDC0CD3ED10508F4D6C0CE01AA
:102080009065D7C0811520E3920708F093C09F7038
:102090008EC0811545E5940708F046C0811554E5CA
:1020A000950708F0A6C0C11582E5D80718F5C11537
:1020B00021E5D20708F088C0CE01F4E09695879517
:1020C000FA95E1F7282F23703C2F337081E090E0E0
:1020D00002C0880F991F3A95E2F79C68922B2C2F2B
:1020E0002F702695269540E2249F90011124822B83
:1020F000932B9FC09E01237033279C2F9695969516
:10210000C115D34508F065C041E050E002C0440F5E
:10211000551F2A95E2F780E2989F90011124CA0189
:10212000822B932B9C6885C0811559E5950798F4FF
:10213000C11588E5D80708F061C0C11526E5D207AA
:1021400008F073C08C2F0E94B5118F7190E0982F0A
:10215000882790626EC081154AE5940708F453C041
:1021600090568115904208F060C08D2F8F710E94AB
:10217000B5119E01332730628F71A901582B53C0CE
:1021800081E090E056C0855AC82FD0E0C858DE4F95
:10219000888190E090644DC0885AC82FD0E0CC0F61
:1021A000DD1FC65BDE4F88819981946442C00E9426
:1021B000F80F3FC09927D3FF02C0986C3AC0906CCB
:1021C00038C09F70906A35C09C2F8827816F906AB5
:1021D00030C041E050E002C0440F551F2A95E2F79D
:1021E00080E2989F90011124CA01822B932B9A6858
:1021F00020C0982F8827846F906A1BC09C2F882747
:10220000806F906A16C08F700E94B5119E0194E095
:10221000369527959A95E1F72F7030E0322F2227D7
:102220003069A901482BCA0104C080E090E001C0D8
:10223000CE01DF91CF9108950E94E50F0E9400101A
:1022400008958238910569F1B0F48133910509F45C
:102250006DC048F48932910509F463C08A32910552
:1022600009F469C008958533910509F455C089338F
:102270009105B9F00895833E910569F138F4803EE7
:102280009105B1F0823E910509F10895863E9105D0
:10229000A9F1873E9105B9F1843E910509F064C02A
:1022A00023C02091520220FD4FC021FD4DC0089552
:1022B0008091520280FD44C08091530280FF44C04F
:1022C0008091520284FD42C083EE4DC08091520243
:1022D00082FF38C0F5CF8091520282FD33C08091D9
:1022E000530280FD31C0ECCF8091530281FF32C098
:1022F0008091520284FD2AC087EE35C0809152023F
:1023000083FF26C0F5CF8091520283FD21C08091CA
:10231000530281FD1FC0ECCF8091520285FD1CC08D
:102320001DC08091520285FD19C016C080915202D5
:1023300086FD16C017C08091520286FD13C010C0E2
:1023400089E311C082EE0FC080EE0DC080E00BC0AB
:1023500086EE09C084EE07C089E205C085E303C0AC
:102360008AE201C081E390E008959091520292FFC9
:102370000DC0282F2871283019F4877F846006C08B
:10238000282F2471243011F48B7F886093FF0DC0B7
:10239000282F2871283119F4877E846106C0282FE0
:1023A0002471243111F48B7E88612091530220FF27
:1023B0000DC0382F3871383019F4877F816006C01E
:1023C000382F3171313011F48E7F886021FF0DC0BC
:1023D000282F2871283119F4877E816106C0282FA3
:1023E0002171213111F48E7E886194FD877E0895DC
:1023F00080E008950C944B0E0E94FE128FE39CE93E
:102400000197F1F700C000000E94FE1280E00E94D8
:10241000361280FF04C00E94FA110C94401C0895EB
:102420000C94FC110E94510E811102C00E94F90E01
:102430000E945C0E809310020E94640E90935302DF
:10244000809352020E9410120E94600E682F70E06A
:1024500080E090E00E94EE0760919D0170919E01E6
:1024600080919F019091A0010C942608E82FF0E044
:10247000E75AFD4F80810895089580EA8A95F1F723
:10248000089500C008950C943D1208950C944512CF
:102490000C9446120C9445120C944A12F894E82FAE
:1024A000E295EF70F0E031A1282F2F7081E090E0ED
:1024B00001C0880F2A95EAF7982F9095932391A34E
:1024C00092A1892B82A3789408950F931F93CF93A1
:1024D000DF93C1E8D1E089918F3F11F00E944E1245
:1024E00081E0C638D807B9F7CBE7D1E001E811E0C1
:1024F00089918F3F11F00E944E120C171D07C1F7F2
:10250000DF91CF911F910F910895CF92DF92EF92BB
:10251000FF920F931F93CF93DF938C01C62FD0E0D0
:10252000CE018F579E4F7C01FC0190819F3F09F4A3
:1025300047C0D62EF894E92FE295EF70F0E081A124
:102540009F7021E030E001C0220F9A95EAF7822BBC
:1025500081A382A12095282322A378940E9441126E
:10256000EBE7F1E041E851E031E0C12C21912F3F50
:1025700089F0A22FA295AF70B0E090968C9190E078
:102580002F7002C0959587952A95E2F780FD02C0CD
:10259000832F01C080E0C82A330F4E175F0731F741
:1025A000F70180818F3F11F00E944E1261E0C1104F
:1025B00001C060E08D2D0E944312C00FD11FC88260
:1025C000DF91CF911F910F91FF90EF90DF90CF900F
:1025D00008950E94651285E0E9E5F2E0DF01982F99
:1025E0001D929A95E9F7E4E5F2E0DF011D928A95E4
:1025F000E9F785E00E9445130C94C702FF920F9300
:102600001F93CF93DF9300D000D01F92CDB7DEB7DA
:102610008E010F5F1F4F85E0F80111928A95E9F74F
:10262000F12C6F2DC8010E948512F394F5E0FF1282
:10263000F8CF45E050E0B80184E592E00E94AC2379
:10264000FF24F394009709F4F12C892B41F085E0E5
:10265000F801A4E5B2E001900D928A95E1F72F2DE3
:1026600045E069E572E084E592E00E9446130E942D
:10267000CF028F2D0F900F900F900F900F90DF9142
:10268000CF911F910F91FF9008950895FF920F939E
:102690001F93CF93DF938C01F62ED72FC42F2223C5
:1026A00049F081E0809313020E94F31B9093120281
:1026B00080931102809113028823C1F0809111024E
:1026C000909112020E940B1C059780F0EF2DFD2FB8
:1026D000D8014C2F50E0CD01801B910B841795073A
:1026E0001CF48D918193F7CF10921302DF91CF915B
:1026F0001F910F91FF9008950E94F81D0E94390FBD
:102700000C94041E0E94081E0E94410F0C94221E6D
:102710000E947A1B0E94DF1D0E942B0F0E947C13D7
:102720000E9482130E94350FFBCF80911A0280FF16
:102730000BC06091090185E0689FB0011124759577
:102740006795759567952BC081FF09C06091090158
:1027500085E0689FB00111247595679520C082FFC0
:1027600007C06091090185E0689FB001112417C07E
:10277000909119029923D1F060910801961788F77A
:102780002091090185E0289F90011124929FA001CA
:10279000939F500D112470E0CA010E9456236038A7
:1027A000710540F46115710519F406C065E070E02B
:1027B000862F08958FE7089581E0089580911A0289
:1027C00080FF08C06091050170E07595679575956B
:1027D000679521C081FF06C06091050170E0759585
:1027E000679519C082FF04C06091050170E010C0B8
:1027F00090911802992399F0609104019617A0F71F
:1028000080910501899FC001112470E00E94562328
:102810006038710540F46115710519F406C061E076
:1028200070E0862F08958FE7089581E008958D3E2A
:1028300021F40E949513819504C08E3E29F40E94D4
:10284000951380931E0208958F3E21F40E949513E4
:10285000819504C0803F29F40E94951380931D0246
:102860000895893F19F40E94DE1305C08A3F31F4B0
:102870000E94DE13819580931F0208958B3F21F4FF
:102880000E94DE13819504C08C3F29F40E94DE1360
:102890008093200208959FE0980F983078F421E00B
:1028A00030E0A90102C0440F551F9A95E2F7CA0112
:1028B00090911C02892B80931C0208958D3F21F476
:1028C00080911A0281600BC08E3F21F480911A0220
:1028D000826005C08F3F29F480911A028460809342
:1028E0001A0208958D3E39F490911E0297FF35C06B
:1028F00010921E0259C08E3E29F490911E021916A4
:10290000BCF32BC090911D028F3E29F497FF25C088
:1029100010921D0249C0803F19F41916CCF31DC056
:1029200090911F02893F29F41916BCF410921F02DE
:102930003BC08A3F19F497FF10C0F8CF8B3F39F4A2
:102940009091200297FF09C0109220022DC08C3F69
:1029500021F4909120021916BCF39FE0980F983053
:1029600080F421E030E0A90102C0440F551F9A9580
:10297000E2F7CA01809590911C02892380931C0282
:1029800013C08D3F21F480911A028E7F0BC08E3FC1
:1029900021F480911A028D7F05C08F3F29F4809128
:1029A0001A028B7F80931A0280911D02811106C04A
:1029B00080911E02811102C01092190280911F02A3
:1029C000811106C080912002811102C0109218026C
:1029D00008950E94F31B20911D02211104C0209133
:1029E0001E02222321F09093170280931602209159
:1029F0001F02211104C020912002222321F0909374
:102A00001502809314028BE192E00C94681AEF9205
:102A1000FF920F931F93CF93DF9300D000D000D08D
:102A2000CDB7DEB786E0EBE1F2E0DE011196019072
:102A30000D928A95E1F7E0901D02F0901E02009140
:102A40001F021091200210921D0210921E0210927D
:102A50001F0210922002E11003C0FF2009F45DC0A4
:102A600080911602909117020E940B1CAC0190916C
:102A70001902992339F020910A0130E02417350713
:102A800058F04BC020910B018AE0289F900111243F
:102A90002417350718F041C09F3F19F09F5F9093AE
:102AA0001902EE2061F00E9495131E1414F09FEF9E
:102AB00001C091E0989F902D112490931D02FF205A
:102AC00061F00E9495131F1414F09FEF01C091E074
:102AD000989F902D112490931E0230911D02332354
:102AE000E1F020911E022223C1F045EB3403C00126
:102AF0001124992319F090931D0203C081E0809363
:102B00001D0235EB2303C0011124992319F0909382
:102B10001E0203C081E080931E02011103C0112335
:102B200009F45DC080911402909115020E940B1C63
:102B3000AC0190911802992339F02091060130E000
:102B40002417350758F04BC0209107018AE0289FD1
:102B5000900111242417350718F041C09F3F19F048
:102B60009F5F90931802002361F00E94DE131016FD
:102B700014F09FEF01C091E0989F902D1124909345
:102B80001F02112361F00E94DE13111614F09FEF53
:102B900001C091E0989F902D1124909320023091D4
:102BA0001F023323E1F0209120022223C1F045EBE4
:102BB0003403C0011124992319F090931F0203C01C
:102BC00081E080931F0235EB2303C0011124992378
:102BD00019F09093200203C081E08093200280913D
:102BE0001D0281110BC080911E02811107C08091CE
:102BF0001F02811103C08091200281110E94E914FB
:102C0000EB82FC820D831E8386E0FE013196ABE1F0
:102C1000B2E001900D928A95E1F726960FB6F894EE
:102C2000DEBF0FBECDBFDF91CF911F910F91FF90FF
:102C3000EF900895EBE1F2E086E0DF011D928A95C6
:102C4000E9F7109219021092180210921A020895D0
:102C500086E090E00C94B923682F86E090E00C9415
:102C6000C72380915E028470896180935E020C9418
:102C70002C160E94510E811104C00E94F90E0E9470
:102C800031160E94281680935E02282F26952695DD
:102C9000269530E02430310524F0877088618093D8
:102CA0005E0280915E0280FF04C0869586958695BF
:102CB00001C080E00C944A1720915E02822F869515
:102CC00086958695482F50E04330510554F48F5F28
:102CD000982F990F990F990F822F8770892B8093C6
:102CE0005E0280915E02816080935E020E942C16DB
:102CF00080915E028695869586950C944A17809100
:102D00005E02982F969596959695A1F0915E990FF3
:102D1000990F990F8770892B80935E02887F91E0CD
:102D200009F490E080915E0290FB80F980935E024E
:102D30000E942C1680915E028695869586950C944D
:102D40004A1780915E0280FD13C0816080935E020D
:102D5000813019F489E080935E0280915E020E94C6
:102D60002C1680915E028695869586950C944A175E
:102D7000089580915E0280FF08C08E7F80935E027E
:102D80000E942C1680E00C944A17089580915E02F0
:102D900080FD0C94B9160C94A11690915E02892FB7
:102DA0008695869586958F5F8F719770843038F4FD
:102DB000880F880F880F892B80935E0202C0909342
:102DC0005E0280915E02887F91E009F490E080913C
:102DD0005E0290FB80F980935E020E942C16809127
:102DE0005E028695869586950C944A17843008F085
:102DF00083E090915E029770282F220F220F220FFE
:102E0000922B90935E02987F21E009F420E090914C
:102E10005E0220FB90F990935E020C944A170E9488
:102E2000F61680915E020C942C169C01FB018281A7
:102E3000882349F12E3BFCE53F07C9F040F42C3BC9
:102E4000ECE53E0769F02D3B3C4561F00895203CE0
:102E50009CE5390791F070F0213C3C4589F00895DC
:102E600083E001C080E00E940F1780E008950E9477
:102E70007F16FBCF0E945C16F8CF0E94C616F5CFD6
:102E80000E94CD16F2CF81E00895259A2D980895DD
:102E90002D9808958F929F92AF92BF92CF92DF921A
:102EA000EF92FF920F931F93CF93DF93C82F84303D
:102EB00050F4811109C0809180008F778093800049
:102EC0000E94481706C0C3E080918000806880930C
:102ED0008000A0918600B09187002C2F30E00E94E6
:102EE000922323E030E040E050E00E946A23002774
:102EF000122F232F342F012F122F232F33278091AE
:102F00008600909187006CE070E00E944223601779
:102F1000710730F0C80169E070E00E9442235EC092
:102F20008091860090918700E0908600F090870065
:102F3000E0918600F0918700C6E0D0E0BE010E94DB
:102F40004223060F171F211D311D4801590185E03D
:102F5000880C991CAA1CBB1C8A95D1F7C701BE011D
:102F60000E9442236F01E12CF12CA7019601260F4C
:102F7000371F411D511DC501B4010E946A2369011B
:102F80007A01E0918600F0918700CA01B9010E94A0
:102F900032239B01AC01DF010E94A1239B01AC0104
:102FA000C701B6010E943223DC01CB012FE0B695A8
:102FB000A795979587952A95D1F70091860010914E
:102FC000870020E030E0081719072A073B0728F49C
:102FD0006091860070918700CB01BC0170938900DD
:102FE00060938800DF91CF911F910F91FF90EF9038
:102FF000DF90CF90BF90AF909F908F9008950895ED
:103000000E94451782E88093800089E180938100C7
:103010008FEF9FEF90938700809386000C94391672
:10302000CF93DF93EC01FB018281882309F426C151
:10303000C430FDE5DF0760F4CB3F9CE5D90768F4B9
:103040009E0122503C452431310508F018C105C0CD
:10305000C236EDE5DE0709F012C10E94640E9093BE
:10306000530280935202C031FCE5DF0709F4CAC065
:1030700008F041C0C8309CE5D90709F4A4C0F0F4B9
:10308000C430FCE5DF0709F48CC068F4C2309CE56D
:10309000D90709F482C0C330DC4509F0E5C080914E
:1030A00052028260DFC0C630FCE5DF0709F483C04E
:1030B00008F085C0809152028860D4C0CC309CE575
:1030C000D90709F490C068F4CA30FCE5DF0709F4B9
:1030D0007EC008F084C00E948D07809152028068F3
:1030E000C1C0CE309CE5D90709F481C008F086C084
:1030F0008091520294C0CD3FFCE5DF0709F47BC00C
:1031000038F5C4319CE5D90709F49AC058F4C231A6
:10311000FCE5DF0709F47AC008F07EC08091520216
:103120008F7BA0C0CB3F9CE5D907F1F108F03FC0F1
:10313000C531DC4509F098C08091520282FB2227FC
:1031400020F991E0922790FB82F990FB83F98AC0E5
:10315000C1308DE5D80709F467C050F4809153025F
:10316000CF3FECE5DE07C1F108F05BC08D7F65C0A5
:10317000C3308DE5D80709F471C008F46DC0C236BC
:10318000DD4509F071C08091520284FB222720F9AD
:1031900091E0922790FB84F965C080915202816092
:1031A00061C08091520216C08091530216C0809176
:1031B0005302826042C080915202806153C080916C
:1031C000520280624FC08091520280644BC0809155
:1031D00052028860846046C0826081602EC0809107
:1031E00052028E7F3FC0809152028D7F3BC0809102
:1031F0005202877F37C08091530214C080915202DF
:103200008F7E30C0809152028F7D2CC00E948D072E
:10321000809152028F7726C080915202877F8B7FE8
:1032200021C08D7F8E7F09C080915302982F909589
:1032300091708E7F892B90FB81F98093530214C08B
:103240000E948D078091520287FB222720F991E08E
:10325000922790FB87F906C081E001C080E00E94C0
:10326000FB0E02C080935202809152029091530251
:103270000E94750E0E948D0780E001C081E0DF9101
:10328000CF910895CF93DF9386319C4541F5EB01B3
:103290000E94680D982F8A812091020130910301CC
:1032A000882379F09A7A81E009F480E08093210202
:1032B000911102C069E201C065E3C9010E94381B97
:1032C0000AC080912102811102C069E201C065E358
:1032D000C9010E94431B0E94BA0D80E001C081E039
:1032E000DF91CF9108950F931F93CF93DF93C42F56
:1032F000D22FFC0182818823C9F0409324020E94CE
:10330000F31B909323028093220280E28C0F88307B
:1033100008F057C0C77081E001C0880FCA95EAF76E
:10332000DF91CF911F910F910C94DF0480912402C3
:10333000481330C080912202909123020E940B1CFE
:10334000883C910538F510E21D0FCD17B9F080E2E9
:103350008C0F883040F4C77081E001C0880FCA9597
:10336000EAF70E94E604183028F581E09D2F977057
:1033700001C0880F9A95EAF70E94DF04802F0E940F
:10338000D6041830F0F4D77081E001C0880FDA95C8
:10339000EAF70AC080E28C0F883098F4C77081E0A9
:1033A00001C0880FCA95EAF7DF91CF911F910F9165
:1033B0000C94E604802FDF91CF911F910F910C9414
:1033C000D604DF91CF911F910F9108950F939C0127
:1033D000CB01243F4CE5340731F188F4293DFCE56D
:1033E0003F07D9F02A3D4CE5340779F1283D3C45AB
:1033F000A9F506E221EE41EE68ED7CE52BC0263F03
:10340000FCE53F07E1F0A8F0273F3C4539F507E22E
:1034100025EE46EE67EF7CE51DC007E225EE45EEA2
:1034200069ED7CE517C006E221EE40EE64EF7CE535
:1034300011C007E225EE44EE65EF7CE50BC006E225
:1034400021EE42EE66EF7CE505C008E221E045EEA4
:103450006AED7CE50E94731980E008C0FC0182815E
:10346000882319F01092240201C081E00F91089581
:103470009093870180938601089590932A02809308
:1034800029020895E0912902F0912A02309721F053
:103490000190F081E02D099480E00895E0912902E7
:1034A000F0912A02309799F020911801222359F0C7
:1034B0002091520227FF07C0DC012C9111962C931A
:1034C000119726E02C930280F381E02D0994089552
:1034D000E0912902F0912A02309739F022E0DC01D4
:1034E0002C930480F581E02D099408952091270202
:1034F000309128022817390771F0909328028093A1
:103500002702E0912902F0912A02309721F00680EB
:10351000F781E02D0994089520912502309126022B
:103520002817390771F09093260280932502E091C5
:103530002902F0912A02309721F00084F185E02DD4
:1035400009940895FC01329680911801882331F086
:103550008091520287FF02C09EE101C096E080E0A8
:10356000915028F021912223D9F38F5FF9CF08954C
:10357000662351F1209118012223E9F02091520293
:1035800027FF19C0462F4695469546954E31E0F4E3
:10359000677021E030E002C0220F331F6A95E2F726
:1035A000FC01E40FF11D828190E02823392381E0A2
:1035B000232B69F409C0FC01329608962191621709
:1035C00029F0E817F907D1F780E0089581E0089520
:1035D0009C01FC0132969FEF80E04191461789F0F3
:1035E0009F3F19F4411101C0982F8F5F8630A9F7D2
:1035F0009F3F39F0F901E90FF11D97FDFA956283BC
:10360000089508959C012A5F3F4FFC0142814613B3
:1036100001C01282019682179307B9F70895262FE9
:103620002695269526952E3168F4FC01E20FF11DB2
:10363000677021E030E001C0220F6A95EAF78281CD
:10364000282B22830895262F2695269526952E3100
:1036500070F4FC01E20FF11D677021E030E001C061
:10366000220F6A95EAF72095828128232283089504
:1036700020911801222329F02091520227FD0C9459
:103680000F1B0C94E81A20911801222329F0209195
:10369000520227FD0C94231B0C94021B209118014D
:1036A000FC013296222331F08091520287FF02C042
:1036B0008EE101C086E0DF011D928A95E9F7089549
:1036C00008950C94601B83E080932B020C94611B83
:1036D000811102C081E001C082E080932B020C9432
:1036E000611B0C94681B81E080932B020C94611B7E
:1036F0000C94731B089580916702843031F10E940D
:10370000D10210922C0220E488E190E00FB6F894E8
:10371000A895809360000FBE2093600083B7817FDF
:10372000846083BF83B7816083BF7894889583B7B3
:103730008E7F83BF0FB6F894A89580916000886152
:1037400080936000109260000FBE089508950C945D
:10375000A61BCF930E94A71B0E94FE120E94A61BCD
:10376000C0E08C2F0E943612811104C0CF5FC5309B
:10377000C1F701C081E0CF9108950E948D070C949C
:1037800044031F920F920FB60F9211248F939F93B1
:10379000AF93BF9380912C02811113C080915F027F
:1037A00090916002A0916102B09162024196A11DC8
:1037B000B11D80935F0290936002A0936102B09369
:1037C0006202BF91AF919F918F910F900FBE0F90AA
:1037D0001F90189582E084BD93E095BD9AEF97BD48
:1037E00080936E0008952FB7F89480915F029091B6
:1037F0006002A0916102B09162022FBF08952FB7BD
:10380000F89460915F0270916002809161029091E2
:1038100062022FBF08959C014FB7F89480915F0218
:1038200090916002A0916102B09162024FBF821B31
:10383000930B089578941F920F920FB60F92112454
:103840008F939F93AF93BF9380915F02909160029B
:10385000A0916102B09162020196A11DB11D8093F9
:103860005F0290936002A0936102B0936202BF91E5
:10387000AF919F918F910F900FBE0F901F90189551
:1038800087E797E790930108809300089AE088E122
:103890000FB6F894A895809360000FBE90936000D7
:1038A000FFCF809150020895089522E02093E9000F
:1038B0002FEF3091E800215035FD06C035ED3A95E7
:1038C000F1F700002111F5CF2091E80025FF0BC092
:1038D00040E050E066E070E00E94941E8091E800B5
:1038E0008E778093E8000895CF93DF93209118019D
:1038F000222339F02091520227FF03C060E222E028
:1039000002C068E021E02093E9002FEF3091E80049
:10391000215035FD06C035ED3A95F1F70000211133
:10392000F5CF2091E80025FF1DC0EC018091180122
:10393000811105C040E050E068E070E003C070E035
:1039400040E050E0CE010E94941E8091E8008E7706
:103950008093E80080E2FE01A0E3B2E001900D92C6
:103960008A95E1F7DF91CF91089580932D027093AE
:103970002F0260932E0280916702843001F582E06D
:103980008093E9008FEF9091E800815095FD06C08B
:1039900095ED9A95F1F700008111F5CF8091E8003F
:1039A00085FF0DC040E050E063E070E08DE292E002
:1039B0000E94941E8091E8008E778093E80008951D
:1039C000BC0184E00C94B51CBC0183E00C94B51CD4
:1039D00080916602811109C00E9425200E948220E8
:1039E0008091E20084608093E20008951092660264
:1039F00008950C94781B6091630281E0611101C00D
:103A000080E00C94631B9091670281E0943009F090
:103A100080E0609163020C94681B42E061EC81E0FD
:103A20000E949E1F42E261EC82E00E949E1F9091E4
:103A3000670281E0943009F080E0609163020C94A9
:103A4000711B80916902833009F461C030F48130C8
:103A500071F0823009F49AC008958A3009F486C062
:103A60008B3009F46CC0893009F0A8C020C0809167
:103A70006802813A09F0A2C08091E800877F8093B4
:103A8000E80080916C0290916D02892B21F460E234
:103A900080E392E003C060E080E090E070E00E948C
:103AA000DF1E8091E8008B778093E8000895809175
:103AB0006802813209F082C080916C0290916D029F
:103AC000029708F07BC08091E800877F8093E80030
:103AD0008091E80082FD05C0809167028111F8CFD6
:103AE0006DC02091F3008091F20090E0922B02973C
:103AF00031F48091F100813011F0863021F4809111
:103B0000F100809350028091E8008B7753C0809140
:103B10006802813A09F052C080916C0290916D0266
:103B2000892B09F04BC08091E800877F8093E800E3
:103B30008091E80080FFFCCF8091180136C0809111
:103B400068028132D9F580916C0290916D02892BC7
:103B5000A9F58091E800877F8093E8000E94D31F39
:103B600080916A02809318010C948D0780916802FD
:103B7000813221F58091E800877F8093E8000E94E0
:103B8000D31F80916B028093510208958091680247
:103B9000813AA1F48091E800877F8093E8008091CA
:103BA000E80080FFFCCF809151028093F10080916A
:103BB000E8008E778093E8000C94D31F089584B7B3
:103BC000877F84BF0FB6F894A895809160008861C4
:103BD00080936000109260000FBE90E080E80FB606
:103BE000F89480936100909361000FBE0C94731B56
:103BF0000E9425200E948220E2EEF0E08081846015
:103C0000808378940C9417238CE091E00C943D1AF7
:103C1000809167028530A9F480916702853079F43C
:103C20000E947B1B809165028823B1F30E94A91B2F
:103C3000882391F30E947E1E0E948D07EDCF0C9485
:103C4000BD1B089508950C94251E292F332723307A
:103C50003105C9F060F42130310581F022303105A1
:103C600009F044C08BE390E024E133E043C021320B
:103C70003105E1F02232310549F138C082E190E0AE
:103C80002FE433E037C099278130910549F028F0BF
:103C9000029761F5ECEDF2E005C0E0E1F3E002C06F
:103CA000EEEEF2E0849190E09F0124C06115710571
:103CB00041F061307105D1F489E090E02FE333E009
:103CC00019C089E090E026E233E014C06115710567
:103CD00041F06130710551F486EB90E021E633E06C
:103CE00009C080E490E027E134E004C080E090E087
:103CF00020E030E0FA0131832083089580E189BD1E
:103D000082E189BD09B400FEFDCF8091D8008F7D8E
:103D10008093D8008091E00082608093E0008091E1
:103D2000E00081FDFCCF0895CF92DF92EF92FF92E9
:103D30000F931F93CF93DF93EC018B017A010E94C5
:103D4000F21F811133C0E114F10439F0F7018081D1
:103D50009181081B190BC80FD91FC12CD12C01153B
:103D6000110519F18091E80085FD16C08091E800E9
:103D70008E778093E800E114F10449F0F701808127
:103D80009181C80ED91ED182C08285E00FC00E94E9
:103D9000F21F882321F30AC089918093F10001501A
:103DA0001109FFEFCF1ADF0ADACF80E0DF91CF9160
:103DB0001F910F91FF90EF90DF90CF900895209189
:103DC0006E0230916F022617370748F061157105B2
:103DD00039F42091E8002E772093E80001C0B90162
:103DE000FC0120E06115710579F18091670288235B
:103DF000F1F18530F1F18091E80083FD3CC08091C4
:103E0000E80082FD2EC08091E80080FFEBCF20917A
:103E1000F3008091F20090E0922B6115710551F052
:103E20008830910538F421912093F1006150710997
:103E30000196F3CF21E0089709F020E08091E80097
:103E40008E778093E800CECF2111CFCF0AC080912A
:103E50006702882361F0853061F08091E80083FD7E
:103E60000AC08091E80082FFF2CF80E0089582E0EE
:103E7000089583E0089581E0089520916E023091C5
:103E80006F022617370748F06115710539F4209144
:103E9000E8002E772093E80001C0B901FC0120E082
:103EA0006115710591F180916702882309F440C082
:103EB000853009F43FC08091E80083FD3DC08091CA
:103EC000E80082FD2FC08091E80080FFE9CF2091BB
:103ED000F3008091F20090E0922B6115710559F08A
:103EE0008830910540F424912093F100319661507F
:103EF00071090196F2CF21E0089709F020E0809146
:103F0000E8008E778093E800CBCF2111CCCF0AC098
:103F100080916702882361F0853061F08091E8002C
:103F200083FD0AC08091E80082FFF2CF80E008950F
:103F300082E0089583E0089581E00895982F9730F6
:103F400068F59093E900981739F07091EC00209192
:103F5000ED005091F00003C0242F762F50E021FD9A
:103F600002C09F5FECCF3091EB003E7F3093EB00BF
:103F70003091ED003D7F3093ED003091EB003160EA
:103F80003093EB007093EC002093ED005093F00021
:103F90002091EE0027FDE5CF80E008958F7080939B
:103FA000E90081E008958091680287FF11C0809147
:103FB000E80082FD05C0809167028111F8CF11C031
:103FC0008091E8008B770BC080916702882349F0CD
:103FD0008091E80080FFF8CF8091E8008E77809391
:103FE000E80008952091E4003091E50095E64091C5
:103FF000EC00842F817040FF23C08091E80080FD99
:104000001DC080916702882399F0853099F08091D6
:10401000EB0085FD11C04091E4005091E5002417AC
:10402000350729F3915011F09A01E1CF84E008950A
:1040300082E0089583E0089581E0089580E0089586
:104040004091E80042FFDDCF08950E9493200E9436
:104050009B20E0EEF0E0808181608083E8EDF0E07D
:1040600080818F77808319BCA7EDB0E08C918E7F23
:104070008C9380818F7E80831092660208950F93C7
:104080001F93CF93DF930E9493200E949B20C8ED43
:10409000D0E088818F778883888180688883888151
:1040A0008F7D888319BC1092670210926302109270
:1040B00065021092640200EE10E0F80180818B7FAF
:1040C000808388818160888342E060E080E00E9494
:1040D0009E1FE1EEF0E080818E7F8083E2EEF0E0D3
:1040E000808181608083808188608083F801808105
:1040F0008E7F8083888180618883DF91CF911F913B
:104100000F910895E8EDF0E080818F7E8083E7EDE8
:10411000F0E080818160808384E082BF81E08093D1
:1041200066020C943F20E8EDF0E080818E7F808372
:104130001092E20008951092DA001092E1000895C2
:104140001F920F920FB60F9211242F933F934F930C
:104150005F936F937F938F939F93AF93BF93EF93EF
:10416000FF938091E10082FF0BC08091E20082FF0B
:1041700007C08091E1008B7F8093E1000E941623AD
:104180008091DA0080FF1FC08091D80080FF1BC0A3
:104190008091DA008E7F8093DA008091D90080FFD1
:1041A0000DC080E189BD82E189BD09B400FEFDCF6B
:1041B00081E0809367020E94E81C05C019BC109240
:1041C00067020E94F61C8091E10080FF19C0809177
:1041D000E20080FF15C08091E2008E7F8093E200B4
:1041E0008091E20080618093E2008091D80080623B
:1041F0008093D80019BC85E0809367020E94FB1C65
:104200008091E10084FF30C08091E20084FF2CC0E7
:1042100080E189BD82E189BD09B400FEFDCF8091B6
:10422000D8008F7D8093D8008091E1008F7E8093AD
:10423000E1008091E2008F7E8093E2008091E200B5
:1042400081608093E20080916302882311F084E012
:1042500007C08091E30087FD02C081E001C083E0D8
:10426000809367020E94031D8091E10083FF29C0B3
:104270008091E20083FF25C08091E100877F8093D9
:10428000E10082E080936702109263028091E10076
:104290008E7F8093E1008091E2008E7F8093E20028
:1042A0008091E20080618093E20042E060E080E083
:1042B0000E949E1F8091F00088608093F0000E9411
:1042C000F91CFF91EF91BF91AF919F918F917F91D9
:1042D0006F915F914F913F912F910F900FBE0F9073
:1042E0001F9018951F920F920FB60F9211242F93C3
:1042F0003F934F935F936F937F938F939F93AF936E
:10430000BF93CF93DF93EF93FF93C091E900CF70FA
:104310008091EC00D82FD17080FDD0E81092E90098
:104320008091F000877F8093F00078940E94B621FE
:104330001092E9008091F00088608093F000CD2B0E
:10434000CF70C093E900FF91EF91DF91CF91BF91C2
:10435000AF919F918F917F916F915F914F913F911D
:104360002F910F900FBE0F901F9018951F93CF9312
:10437000DF93CDB7DEB7AA970FB6F894DEBF0FBEB6
:10438000CDBFE8E6F2E08091F100819322E0E037D2
:10439000F207C9F70E94211D8091E80083FF2EC11A
:1043A0008091680290916902492F50E04A3051058E
:1043B00008F024C1FA01EC58FF4F0C948C2380388C
:1043C00021F0823809F01AC108C0809164029091EE
:1043D0006502992389F082600FC080916C028F7012
:1043E000873008F00BC18093E9008091EB0085FBDA
:1043F000882780F91092E9009091E800977F9093C8
:10440000E8008093F1001092F100D1C0282F2D7F99
:1044100009F0F4C0882319F0823061F0EFC0809178
:104420006A02813009F0EAC0933009F080E080939D
:1044300065022EC080916A0281112AC080916C02AF
:104440008F702FEF280F263008F0D8C08093E90036
:104450002091EB0020FF1CC0933021F48091EB00F1
:10446000806214C09091EB0090619093EB0021E08A
:1044700030E0A90102C0440F551F8A95E2F740932E
:10448000EA001092EA008091EB0088608093EB00D4
:104490001092E9008091E800877F8093E8000E94F5
:1044A000D31FACC08111AAC010916A021F778091FE
:1044B000E3008078812B8093E3008091E800877F80
:1044C0008093E8000E94D31F8091E80080FFFCCF1A
:1044D0008091E30080688093E300111102C082E0C4
:1044E00001C083E08093670289C08058823008F061
:1044F00085C080916A0290916B028C3D53E09507D4
:1045000079F583E08A838AE289834FB7F894DE01E4
:10451000139620E03EE051E2E32FF0E05093570085
:10452000E49120FF03C0E295EF703F5FEF708E2FA4
:1045300090E0EA3010F0C79601C0C0968D939D932D
:104540002F5F243149F74FBF8091E800877F809328
:10455000E8006AE270E0CE0101960E94DF1E16C0FC
:1045600060916C0270916D02AE014F5F5F4F0E94CF
:10457000231EBC01892B09F441C09091E800977F6C
:104580009093E80089819A810E943D1F8091E80004
:104590008B778093E80032C0803881F58091E80005
:1045A000877F8093E800809163028093F10080917F
:1045B000E8008E7772CF811121C080916A029091BC
:1045C0006B0299270297D4F48091E800877F80934B
:1045D000E80080916A02809363020E94D31F809159
:1045E0006302811106C08091E30087FD02C081E073
:1045F00001C084E0809367020E940D1D8091E80055
:1046000083FF0AC08091E800877F8093E800809153
:10461000EB0080628093EB00AA960FB6F894DEBFA1
:104620000FBECDBFDF91CF911F9108950895CF9315
:10463000809167028823A1F0C091E900CF7090912A
:10464000EC00892F817090FD80E8C82B1092E90062
:104650008091E80083FD0E94B621CF70C093E900ED
:10466000CF910895DB018F939F930E94A123BF9167
:10467000AF91A29F800D911DA39F900DB29F900DB1
:1046800011240895AA1BBB1B51E107C0AA1FBB1F21
:10469000A617B70710F0A61BB70B881F991F5A95CE
:1046A000A9F780959095BC01CD01089597FB072E41
:1046B00016F4009407D077FD09D00E94422307FC2E
:1046C00005D03EF4909581959F4F08957095619522
:1046D0007F4F0895A1E21A2EAA1BBB1BFD010DC03E
:1046E000AA1FBB1FEE1FFF1FA217B307E407F507A2
:1046F00020F0A21BB30BE40BF50B661F771F881F7E
:10470000991F1A9469F760957095809590959B0113
:10471000AC01BD01CF010895EE0FFF1F0590F4918C
:10472000E02D0994A29FB001B39FC001A39F700D1B
:10473000811D1124911DB29F700D811D1124911DA9
:1047400008950E949223A59F900DB49F900DA49F61
:10475000800D911D11240895FB01DC0104C08D9191
:104760000190801921F441505040C8F7881B990BE3
:104770000895F999FECF92BD81BDF89A992780B529
:104780000895A8E1B0E042E050E00C94ED23262F1C
:10479000F999FECF92BD81BDF89A019700B4021637
:1047A00039F01FBA20BD0FB6F894FA9AF99A0FBEE5
:1047B00008950396272F0E94C8230E94C723252F00
:1047C0000E94C823242F0C94C8230196272F0E94EF
:1047D000C8230C94C723DC01CB01FC01F999FECF5F
:1047E00006C0F2BDE1BDF89A319600B40D92415079
:0A47F0005040B8F70895F894FFCF89
:1047FA00C800DF012808641E140A321E511C741CEA
:10480A00551CE41CE01C541C01E200E900EA00B556
:10481A0000B600B700CD008301CC008A0192019452
:10482A00012102230224022502260227022A02B3B8
:10483A0000B4006F007000818283E200E900EA00A0
:10484A00B500B600B700CD008301CC008A01920101
:10485A0094012102230224022502260227022A02A7
:10486A00B300B4006F00700081828334C6976694E7
:06487A0090F731333236E5
:00000001FF
